:020000040800F2
:10000000005000203D0300085F0100084B0100087C
:1000100047010008330100081F010008000000002C
:100020000000000000000000000000001B010008AC
:10003000170100080000000013010008110100086A
:100040000D0100080D0100080D0100080D01000858
:100050000D0100080D0100080D0100080D01000848
:100060000D0100080D0100080D0100080D01000838
:100070000D0100080D0100080D0100080D01000828
:100080000D0100080D0100080D0100080D01000818
:100090000D0100080D0100080D0100080D01000808
:1000A0000D0100080D0100080D0100080D010008F8
:1000B000B9030008A1030008910300080D0100081E
:1000C0000D0100080D0100080D0100080D010008D8
:1000D0000D0100080D0100080D0100080D010008C8
:1000E0000D0100080D0100080D01000800000000CE
:1000F0000000000000000000000000000000000000
:1001000000000000000000005FF808F100BEFEE7FC
:10011000704700BEFEE700BEFEE700BEFEE71EF031
:10012000040F0CBFEFF30880EFF309807146854A96
:1001300010471EF0040F0CBFEFF30880EFF30980A7
:100140007146814A104700BEFEE71EF0040F0CBF47
:10015000EFF30880EFF3098071467C4A104700BE38
:10016000FEE780B582B004468846084B5E6B9F6B05
:100170009D6A074801F09CF9CDF800803B46324665
:100180002946204601F0ACF900BEFEE700ED00E094
:10019000FC1F000880B582B004468846084B5E6BA1
:1001A0009F6B9D6A074801F083F9CDF800803B46BC
:1001B00032462946204601F093F900BEFEE700BF13
:1001C00000ED00E00C2000082DE9F04182B004466B
:1001D0008846134B5E6B9F6B9D6A1B6B13F0020F7F
:1001E00003D00F4BDB6A002B0CDB0E4801F060F9EB
:1001F000CDF800803B4632462946204601F070F992
:1002000000BEFEE74BF6AB6101F0F4F80028ECD03D
:10021000034B4FF00042DA6202B0BDE8F08100BF4C
:1002200000ED00E01820000800B583B001F0F6F8FA
:10023000304B314A1360314A1360314B314A3249F5
:100240008B4204D21168196004330432F7E72A4B59
:100250001A682E4B9A4200D0FEE7284B1A682C4BA6
:100260009A42F9D1234B2B4A13602B4A13602B4B34
:1002700002E000221A600433294A9342F9D3254B45
:100280001B6813B9244B1B6803B1FEE701F0C2F8E9
:10029000694601A801F002F9224C234BE41AA4108C
:1002A0000025AC4214DC214C214BE41AA41000259B
:1002B000AC4213DC0099019800F054FF05461D4C38
:1002C0001D4BE41AA410002C0EDC284601F0EEF8B9
:1002D000154B53F8253098470135E2E7144B53F896
:1002E000253098470135E3E7013C134B53F82430A0
:1002F0009847E8E7BABADECA000000208400002070
:10030000000000205C20000888000020785634128D
:1003100032547698880000203401002088000020A4
:1003200038010020780300087803000878030008EB
:1003300078030008780300087803000808B5FFF781
:1003400073FF00006301000895010008C90100085F
:100350005C20000800000020880000205C200008CD
:10036000000000000000000088000020380100208C
:08037000000000000000000085
:1003780010B40446034B07CB20606160A26020469E
:1003880010BC70471C01002008B500231A6922F030
:1003980001021A61984708BD08B5044A136923F099
:1003A800010313610023984708BD00BF0004004003
:1003B80008B54FF08042136923F00103136100234D
:1003C800984708BD30B40446194B53F820301A68D2
:1003D80022F001021A601A6922F001021A61154A14
:1003E80002EB00125368144DB3FBF5F301FB03F164
:1003F8001389B1FBF3F1B1F5803F05D20C4B53F8EB
:100408002030D96200225A62094B53F82020136821
:1004180043F001031360064B53F824301A6912F0B5
:10042800010FF8D01A6822F001021A6030BC704738
:10043800981E0008A41E000840420F000023032B4A
:1004480061D970471A46354901EB031149780029EB
:100458003BD0334951F82300016821F001010160C4
:100468002E4901EB03118978002934D001293AD0AB
:100478002A4901EB0211C97800293CD0284951F8D2
:100488002200C16841F00101C160244800EB02105C
:100498000589234951F822106C1E8C624168214C51
:1004A800B1FBF4F4C16801FB04F1B1FBF5F1B1F55E
:1004B800803F03D21A4850F82200C162184951F807
:1004C80022100A6842F001020A600133DBB2032BF2
:1004D800B8D930BC7047124951F82200016821F0A0
:1004E80010010160C4E70E4951F82200016841F08B
:1004F80010010160BCE70A4951F82200C16821F0E7
:100508000101C160C1E71A46044901EB03114978AA
:1005180011B90133DBB292E730B49AE7A41E0008A0
:10052800981E000840420F00074B1B6813F0020F8B
:10053800FAD0064B1860044B1B6813F0010FFAD071
:10054800024B186880B27047083001400C300140F7
:10055800144B00221A6014490A601A6842F010020B
:100568001A601A6842F004021A601A6842F480722B
:100578001A601A6842F400721A601A6822F400625B
:100588001A601A6822F002021A601A6822F0010240
:100598001A601A6822F080021A601A6842F0400253
:1005A8001A60704700300140043001401F291CD8F0
:1005B80001280BD010B1022810D070470B4A012334
:1005C80003FA01F113680B4313607047084A0123CB
:1005D80003FA01F113680B4313607047054A0123BE
:1005E80003FA01F113680B431360704714100240BB
:1005F8001C10024018100240012818D010B102281F
:1006080029D07047012A07D11D4A012303FA01F1B5
:1006180013680B4313607047002A2FD1184A01232F
:1006280003FA01F1136823EA010313607047012AF2
:1006380007D1144A012303FA01F113680B4313602D
:100648007047DAB90F4A012303FA01F1136823EA64
:10065800010313607047012A07D10B4A012303FAEB
:1006680001F113680B43136070473AB9064A012336
:1006780003FA01F1136823EA01031360704700BF0E
:100688000C0801400C0C01400C100140002947D017
:100698002DE9F8430F469946904600F07E0444F051
:1006A8008004002204211046FFF7A6FF013FFFB295
:1006B800A4B22046FFF738FF0025BD420BD3002027
:1006C800FFF732FF08F80500012204210020FFF798
:1006D80093FFBDE8F883EDB9B9F1000F1AD04B4686
:1006E8002E4605E0012098400643F6B20133DBB2FE
:1006F800072BF7D92046FFF717FF18F9053023EA2B
:1007080006035BB2304040B2184388F80000013558
:10071800EDB2D2E72046FFF707FF08F80500F6E735
:10072800704710B582B00446002204211046FFF736
:1007380063FF04F07E0040F08000FFF7F5FEC0B2D2
:100748008DF807000020FFF7EFFEC0B28DF8070014
:10075800012204210020FFF74FFF9DF8070002B097
:1007680010BD70B50E461546002204211046FFF74D
:1007780043FF0024B44205D3012204210020FFF7DF
:100788003BFF70BD285DFFF7CFFE0134E4B2F1E70F
:1007980038B505460C46002204211046FFF72CFF09
:1007A80005F07E00FFF7C0FE2046FFF7BDFE0122E0
:1007B80004210020FFF720FF38BD08B52820FFF7E7
:1007C800B0FF00F00303032B05D040F00301C9B2CA
:1007D8002820FFF7DDFF08BD08B50F210220FFF72D
:1007E800D7FF4CF250310220FFF7ECFD0220FFF753
:1007F80098FF10F0100FF9D108BD08B5FFF7ECFF0E
:1008080080215420FFF7C4FFA9215620FFF7C0FF1D
:1008180003215820FFF7BCFFE8215A20FFF7B8FF53
:1008280040212A20FFF7B4FF3D212220FFF7B0FF27
:10083800FFF7C3FF08BD000008B5FFF7DEFF002380
:10084800052B00D908BD034AFF21D1540133DBB27F
:10085800F6E700BF1001002038B505460C46FFF743
:1008680060FF20EA040189B22846FFF791FF38BDEE
:1008780038B505460C46FFF754FF40EA0401C9B2F3
:100888002846FFF785FF38BD70B506460C46154665
:1008980000210220FFF77CFF04210A20FFF778FFE0
:1008A80080211420FFF7E4FF324621461220FFF78B
:1008B80058FF03210220FFF76BFF41F288340A201A
:1008C800FFF72FFF10F0040F05D1013CA4B2002C54
:1008D800F5D103200CE000210220FFF759FF442046
:1008E800FFF71FFF28704220FFF71BFF68700020EA
:1008F80070BD2DE9F04F87B08246019102920393B3
:10090800109C119E129F9DF84C909DF850B0A7B373
:100918003B784FEA0915EDB21D44EDB200210220E3
:10092800FFF736FF7F210820FFF732FF80211420D0
:10093800FFF79EFF029A03991220FFF712FF29463C
:100948001A20FFF725FF51460220FFF721FFBAF1D1
:100958000C0F03D180211A20FFF78AFF42F210758D
:100968000820FFF7DEFE019B184208D110F0010FA6
:100978005DD1013DF4D103234BE00023C9E70C20EE
:10098800FFF7CFFE054610F0130F52D1ACB1A6B158
:100998001420FFF7C6FE0146337883424BD33070EC
:1009A8004B4622461220FFF771FE1820FFF7B9FECA
:1009B80000F007080FB187F8008015F0080F3CD148
:1009C800002C3CD0002E3CD0BBF1000F3BD031783E
:1009D800012902D1B8F1040F1FD001291FD9B8F19C
:1009E800000F1ED1023905AAC9B22046FFF74CFFF5
:1009F800034670B93278A11811F8020C9DF814104A
:100A0800884210D1144414F8011C9DF81520914215
:100A18000BD1184607B0BDE8F08F0523F9E7062388
:100A2800F7E70623F5E70623F3E70623F1E70323B1
:100A3800EFE70123EDE70223EBE70423E9E70023CF
:100A4800E7E70023E5E70023E3E770B58CB000286B
:100A580040D0044610293FD800238B4232D3164693
:100A68000D4607AB5A181846FFF70EFF044630BB71
:100A7800AB1C12228DF81B2000218DF81A1007AA32
:100A8800049103910DF11A0102910DF11B010191DD
:100A98000092DBB230210C20FFF72BFF0EB10328A8
:100AA8000DD0D8B99DF81B40012C19D19DF81A30EA
:100AB800042B04D19DF81C300A2B13D005242046A2
:100AC8000CB070BDE55C0CA8184400F8145C013348
:100AD800DBB2C2E70724F2E70724F0E70446EEE7B3
:100AE8000124ECE70446EAE7D1B130B583B00D46FE
:100AF8000F2A18D91446A0238DF804308DF8050064
:100B08000122022101A8FFF7A0FF034628B901220C
:100B180021462846FFF799FF0346184603B030BD23
:100B28000723184670470723F7E710B58AB08DF8F2
:100B38001C008DF81D100021052910D90022032A58
:100B480017D90023049303930293019300930C2372
:100B580007AA10210E20FFF7CCFE0AB010BD881C92
:100B6800545C0DF1280C604400F80C4C0131C9B2FA
:100B7800E2E702F10801981840780AAC214401F82C
:100B88000C0C0132D2B2DAE770B5042490FBF4F40D
:100B9800A4000334022803DD431C13F0030F0ED016
:100BA8000E460546094BE1B26020FFF7BEFF40B98B
:100BB80010223146E8B2FFF797FF20B970BD022036
:100BC800FCE70320FAE70420F8E700BF1C01002037
:100BD80010B584B0044600238DF80F306846FFF73F
:100BE800C7FB6B46064A21466020FFF79EFF10B9F7
:100BF80001238DF80F309DF80F0004B010BD00BF21
:100C08001001002084B010B502AC84E80F00042065
:100C1800FFF7DEFF012818D1114A02A90420FFF7C7
:100C2800B3FF044600BF0520FFF7D2FF01280FD10C
:100C38000B4A0DF12A010520FFF7A6FF5CB960B148
:100C48000020BDE8104004B070474FF0FF34E9E7DA
:100C58004FF0FF30F2E70020F3E70120F1E700BF93
:100C68001001002084B030B58FB012AC84E80F00BA
:100C78006C4616AD0FCD0FC40FCD0FC40FCD0FC4EA
:100C88002B68236012AB0FCBFFF7BCFF0FB0BDE89A
:100C9800304004B0704710B586B09DF828400494E1
:100CA8009DF824400394089C0294019300920B46FB
:100CB800024630210C20FFF71CFE06B010BD2DE9BE
:100CC800F04F8BB0502900F2628189460746802197
:100CD8001C20FFF7C1FD012500230493049B43B1A9
:100CE80005EB450501353D70002630460BB0BDE8E3
:100CF800F08F022D3DD0032D4DD0012D40F04981BC
:100D080093238DF81C30B9F1000F2ED03B78042BBB
:100D18002DD80023DBB24FF0000AA9EBCA0464B255
:100D2800002C00DA0024002B3CD088228DF81E20ED
:100D38000321082294FBF2F2D2B2E0B210F00706C7
:100D480018BF0126324412F0FF0207D063B303260E
:100D5800964200D316460022B24227D313B100F1BF
:100D6800080464B2049B05939CE00023D2E70123A6
:100D7800D0E795238DF81C30B9F1000F07D03B78E8
:100D8800072B06D80023DBB24FF0030AC5E7002380
:100D9800F9E70123F7E797238DF81C30049B4FF000
:100DA800060ABAE70221C4E70426D1E70AEB020CD7
:100DB80001F1010EBC449CF801C00DF1280B594407
:100DC80001F80CCC0132D2B25FFA8EF1C4E71F2CC5
:100DD80040F39C8070238DF81D309DF81E109DF8FF
:100DE8001F009DF820209DF8213041404A40534083
:100DF8008DF822300DF12302072107A8FFF744FDE3
:100E0800064600287FF471AF00238DF81B300323BA
:100E18008DF81A300DF1220809269DF81BB00BEB4E
:100E28000B111A20FFF7B4FC00230293CDF804B08D
:100E38000DF11B0300930DF11A034246314607A832
:100E4800FFF729FF0646042840F082801C20FFF7A0
:100E580068FC10F0200F7FF448AF10F01F0000D19D
:100E68002020A04240F3978044B2631E5A4203F008
:100E7800070302F0070258BF534213F0FF0214BFE2
:100E880001230023082194FBF1F10B44DBB2013369
:100E9800DBB2012191400AAA134413F80C2C0A432F
:100EA80003F80C2C059B002B91D09DF81E30882B45
:100EB80058D10322882B57D103200023834255D3CE
:100EC8009DF81A30032B68D19DF81B30002B66D192
:100ED8000DF11E0201214046FFF7D6FC0646002808
:100EE8007FF403AF9DF81E2098F801309A4258D13C
:100EF8009DF81F2098F802309A4254D198F8003093
:100F080013F0040F3FD00135EDB2E7E6634204F079
:100F1800070603F0070358BF5E42F6B28DF81B6060
:100F2800082394FBF3F3DBB20233DBB21A01D2B22B
:100F380032448DF81D20002E0CBF1E465E1CF6B2F2
:100F480007AA02EB0308C3F109038DF81A3064E716
:100F580000287FF4CAAE1F2C01DC2024A2E701235D
:100F680005939FE70222A5E70420A6E7541C0AEB95
:100F780003010AAE324412F80C6C7A185670013329
:100F8800DBB2E2B29AE7FB72059B0493A6E607265A
:100F9800ABE60826A9E60826A7E60126A5E6012667
:100FA800A3E60626A1E606269FE6000008B500216E
:100FB8000348FFF784FEB0FA80F0400908BD00BF7F
:100FC8001C01002030B589B08DF8170021B30D46FB
:100FD8001378012B22D9144680211C20FFF73CFCF2
:100FE80007238DF81F300023029301930DF11F038F
:100FF800009323462A4601210DF11700FFF74BFE07
:10100800034630B92378022B0AD19DF81F3003B16B
:101018000123184609B030BD0223FAE70223F8E796
:101028000123F6E708B50A4601462620FFF7CAFF5E
:1010380008BD00B583B002A9022301F8053D01A847
:10104800FFF7F0FF28B1042805D1012003B05DF8AF
:1010580004FB0120FAE70020F8E708B5FFF7E9FFED
:10106800034610B1FFF7A2FF0123184608BD000090
:1010780010B4012825D018B1022843D010BC7047FD
:1010880007290CD889000F2000FA01F32D4C20689D
:1010980020EA030002FA01F101432160EEE70F297B
:1010A800ECD8A1F10800C0B280000F2101FA00F3CA
:1010B800254C216821EA030102FA00F00843206068
:1010C800DCE707290CD889000F2303FA01F01F4C2D
:1010D800236823EA000302FA01F119432160CDE7EE
:1010E8000F29CBD8A1F10803DBB29B000F2101FA2D
:1010F80003F0174C216821EA000102FA03F30B43BD
:101108002360BBE707290CD889000F2303FA01F0F5
:10111800104C236823EA000302FA01F11943216005
:10112800ACE70F29AAD80839C9B289000F2303FAF6
:1011380001F0094C236823EA000302FA01F119437C
:1011480021609BE70008014004080140000C0140B1
:10115800040C0140001001400410014030B5A1B05A
:1011680002210846FFF722FA0C210220FFF71EFA97
:1011780000210220FFF71AFA01210846FFF716FAA4
:10118800012203210020FFF773FF01220421002020
:10119800FFF76EFF092205210020FFF769FF0422EF
:1011A80006210020FFF764FF092207210020FFF72E
:1011B8005FFF012204210020FFF71EFA012203210C
:1011C8000020FFF719FA194A536843F00073536077
:1011D800FFF7BEF9FFF732F9FFF72EFB34220021A3
:1011E80013A800F045FE124B0FAC0FCB07C424F830
:1011F800023B1B0C237000238DF84B300D4B8DF8F0
:101208004D30FFF72AFF01280DD16C4613AD0FCDE5
:101218000FC40FCD0FC40FCD0FC42B6823600FABC5
:101228000FCBFFF71FFD002021B030BD00000140AB
:10123800881E0008F01F000882B000230193009365
:101248002C4A136843F4803313602A4B1B6803F459
:1012580000330093019B01330193009B1BB9019B51
:10126800B3F5A06FF1D1234B1B6813F4003F06D0F0
:1012780001230093009B012B04D002B07047002388
:101288000093F7E71C4B1A6842F010021A601A68BC
:1012980022F003021A601A6842F002021A60A3F5EB
:1012A80080535A685A605A685A605A6842F4806291
:1012B8005A605A6822F47C125A605A6842F4E8125A
:1012C8005A601A6842F080721A600A4B1B6813F061
:1012D800007FFAD0074B5A6822F003025A605A6816
:1012E80042F002025A60034B5B6803F00C03082BC0
:1012F800F9D1C2E7001002400020024008B5FFF70C
:101308009BFF08BD204B5B6803F00C03042B12D035
:10131800082B14D0002B32D11C4B1D4A1A601A4BD3
:101328005B68C3F303131B4AD35CDAB217490B6833
:10133800D3400B607047154B154A1A60EFE7124A05
:1013480053685268C3F38343023312F4803F05D1D4
:10135800114A02FB03F30D4A1360E0E70A4A526898
:1013680012F4003F05D00C4A02FB03F3074A13604E
:10137800D5E7074A02FB03F3044A1360CFE7034BA0
:10138800034A1A60CBE700BF001002401400002097
:1013980000127A000400002000093D0008B5104B37
:1013A8001A6842F001021A6059680E4A0A405A60E7
:1013B8001A6822F0847222F480321A601A6822F4C1
:1013C80080221A605A6822F4FE025A604FF41F0203
:1013D8009A60FFF793FF044B4FF000629A6008BDD4
:1013E800001002400000FFF800ED00E083691A8851
:1013F8008A4207D10268033A012A05D80233836179
:1014080001207047002070470020704708B5FFF79B
:1014180079FF08BD08B5FFF7C1FF024A024B9A6081
:1014280008BD00BF0000000800ED00E02DE9F04312
:1014380085B004460F4643560BB10E461EE0042500
:1014480028462146ABBE0446384605B0BDE8F083C1
:1014580014F9011B04AA1A4402F8101C0133AB4208
:10146800F6D304AA1344002203F8102C4FF0040802
:10147800E94640464946ABBE8046761B002EE3D07F
:101488003546102E28BF10250023E8E708B5FFF7DA
:10149800CDFF08BD01230360014B0B60704700BFFF
:1014A80018000020FEE700000FB400B583B004ABBD
:1014B80053F8042B01938021064800F0DBF800283C
:1014C80003DD01460348FFF7E1FF03B05DF804EBD5
:1014D80004B070478C000020F8B504460D46174646
:1014E8001E462748FFF7E0FF21682648FFF7DCFF84
:1014F80061682548FFF7D8FFA1682448FFF7D4FFA3
:10150800E1682348FFF7D0FF21692248FFF7CCFFA5
:1015180061692148FFF7C8FFA1692048FFF7C4FFA8
:10152800E1691F48FFF7C0FF1E48FFF7BDFF2946C6
:101538001D48FFF7B9FF1D4CE16A1D48FFF7B4FFCE
:10154800216B1C48FFF7B0FFE16B1B48FFF7ACFFAE
:1015580015F0800F0AD115F4004F0CD11748FFF78A
:10156800A3FF06991648FFF79FFFF8BD39461548AF
:10157800FFF79AFFEFE731461348FFF795FFEDE7CE
:10158800D41E0008E41E0008F41E0008041F00080A
:10159800141F0008241F0008341F0008441F0008F7
:1015A800541F0008641F0008701F000800ED00E0C9
:1015B800801F0008901F0008A01F0008D01F000807
:1015C800D81F0008B01F0008C01F000808B5034650
:1015D8000C4A12685AB10B4A1068033323F003030C
:1015E8000344094A934206D8064A136008BD054ACF
:1015F80006491160EFE700F00BF80C2303604FF089
:10160800FF30F3E70C010020004C002038010020D7
:10161800014B1868704700BF2000002030B5141E29
:1016280005469BB0184605DA8B234FF0FF302B6038
:101638001BB030BD4FF40273ADF80C300CBF23461D
:1016480004F1FF33029305934FF6FF730091049161
:10165800ADF80E3002461E9B6946284600F072F827
:10166800431CBCBF8B232B60002CE1D00022009BC5
:101678001A70DDE707B5009313460A46014603488A
:101688000068FFF7CBFF03B05DF804FB20000020E3
:101698002DE9F0478E6882469E420C469046994650
:1016A80037D88A8912F4906F31D0022325680969E6
:1016B8006F1A656905EB450595FBF3F509F101031B
:1016C8003B449D4238BF1D46530530D5294600F09E
:1016D80035FB064650B90C234FF0FF30CAF80030EE
:1016E800A38943F04003A381BDE8F0873A46216906
:1016F80000F0B4FAA38923F4906343F08003A38134
:1017080026613E4426604E466561ED1BA5604E4548
:1017180000D94E4632464146206800F0AAFAA3682E
:1017280000209B1BA36023681E442660DCE72A4632
:1017380000F05EFB06460028E2D12169504600F021
:10174800B1FAC8E72DE9F04F9DB003938B89804625
:101758001D060C4616460FD50B696BB9402100F0E3
:10176800EDFA2060206128B90C23C8F800304FF04A
:10177800FF30C7E0402363610023099320238DF8DD
:10178800293030234FF0010B8DF82A3037463D467B
:1017980015F8013B0BB1252B3ED1B7EB060A0BD050
:1017A8005346324621464046FFF772FF013000F0AB
:1017B800A480099B534409933B78002B00F09D803B
:1017C80000234FF0FF32CDE90523049307938DF8EA
:1017D80053301A932F46052217F8011B4F4800F083
:1017E8002FFA049BD0B9D90644BF20228DF8532084
:1017F8001A0744BF2B228DF853202A782A2A15D09D
:101808002F4600200A25079A394611F8013B303B3C
:10181800092B4DD9B8B10FE02F46B8E73F4A3D46EE
:10182800801A0BFA00F018430490D3E7039A111DAD
:1018380012680391002A01DB079204E0524243F048
:101848000203079204933B782E2B0CD17B782A2B2A
:1018580033D1039B02371A1D1B680392002BB8BFB4
:101868004FF0FF3305932E4D03223978284600F0B8
:10187800E7F938B14023401B03FA00F0049B013715
:10188800034304933978062226487E1C8DF82810D5
:1018980000F0D6F9002838D0234B13BB039B07333D
:1018A80023F0070308330393099B4B4409936DE71F
:1018B80005FB023201200F46A6E700230A25194638
:1018C80001370593384610F8012B303A092A03D915
:1018D800002BC8D00591C6E705FB01210123074667
:1018E800F0E703AB00932246104B04A94046AFF340
:1018F8000080B0F1FF3F8146D6D1A3895B063FF552
:1019080036AF09981DB0BDE8F08F03AB00932246AF
:10191800064B04A9404600F081F8EAE728200008B1
:101928002E20000832200008000000009916000848
:101938002DE9F04791461F468A680B69064693428F
:10194800B8BF1346C9F8003091F843200C46DDF8BB
:10195800208012B10133C9F800302368990642BFCC
:10196800D9F800300233C9F80030256815F00605AB
:1019780007D104F1190AE368D9F800209B1AAB4291
:1019880029DC94F843302268003318BF01239206FB
:101998002ED404F1430239463046C047013021D0E5
:1019A8002368E56803F00603042B18BF0025D9F85F
:1019B80000204FF0000908BFAD1AA368226908BFCC
:1019C80025EAE5759342C4BF9B1AED181A344D45B4
:1019D8001AD1002008E00123524639463046C04754
:1019E800013003D14FF0FF30BDE8F0870135C2E781
:1019F8003020E11881F843005A1C94F8451022441D
:101A0800023382F84310C4E70123224639463046A0
:101A1800C0470130E6D009F10109D8E72DE9F043C4
:101A280001F1430C0C46097E85B06E29174606461F
:101A380098460C9A00F0B38022D8632936D00AD889
:101A4800002900F0B980582900F0838004F142058C
:101A580084F8421032E0642901D06929F6D120685F
:101A68001368050603F104012AD51B681160002BD1
:101A780003DA2D225B4284F843206F480A2239E0BA
:101A8800732900F09D8008D86F2920D07029DDD1F6
:101A9800236843F02003236003E0752917D07829D1
:101AA800D4D17823654884F8453055E0136804F1AB
:101AB8004205191D1B68116084F8423001238CE02F
:101AC8001B6810F0400F116018BF1BB2CFE71368F6
:101AD8002568181D1060280601D51B6802E06806F5
:101AE800FBD51B886F2914BF0A22082252480021FF
:101AF80084F843106568002DA560C0F295802168C0
:101B080021F004012160002B3DD1002D40F08E8092
:101B18006546082A0BD12368DB0708D52369626864
:101B28009A42DEBF302305F8013C05F1FF35ACEBE6
:101B380005032361CDF800803B4603AA21463046C1
:101B4800FFF7F6FE01304DD14FF0FF3005B0BDE88C
:101B5800F083394884F84510136821681D1D1B68F7
:101B680015600A060BD5CA0744BF41F02001216061
:101B78001BB9226822F0200222601022B7E74D0626
:101B880048BF9BB2EFE76546B3FBF2F102FB1133A6
:101B9800C35C05F8013D0B460029F5D1B9E7136888
:101BA8002568181D6169106028061B6801D5196031
:101BB80002E06A06FBD51980002365462361B9E770
:101BC8001368191D11601D6862680021284600F01D
:101BD80037F808B1401B606063682361002384F80C
:101BE8004330A7E723692A4639463046C0470130C3
:101BF800AAD023689B0713D4E068039B9842B8BF18
:101C08001846A3E701234A4639463046C047013003
:101C18009AD00135E368039A9B1AAB42F2DCEBE7F2
:101C2800002504F11909F5E7002BACD1037804F17C
:101C3800420584F842306CE7392000084A20000841
:101C480010B5C9B202449042034601D1002303E013
:101C58001C7801308C42F6D1184610BD10B5431ED1
:101C68000A44914200D110BD11F8014B03F8014F0D
:101C7800F7E7884210B501EB020307D8421E9942E4
:101C88000AD011F8014B02F8014FF8E78342F5D961
:101C98008118D21AD34200D110BD13F8014D01F8B2
:101CA800014DF7E738B50546002943D051F8043C03
:101CB8000C1F002BB8BFE41800F0D0F81E4A1368B8
:101CC800104633B9636014602846BDE8384000F018
:101CD800C6B8A3420BD921686218934201BF1A689B
:101CE8005B685218226063600460EDE713465A6827
:101CF8000AB1A242FAD919685818A0420BD1206833
:101D08000144581882421960DED1106852680144B3
:101D180019605A60D8E702D90C232B60D4E72068F1
:101D280021188A4201BF116852680918216062604F
:101D38005C60C9E738BD00BF2801002070B5CD1C24
:101D480025F0030508350C2D38BF0C25002D064657
:101D580001DBA94203D90C233360002070BD00F0D9
:101D68007DF8214A1468214691B9204C23681BB993
:101D7800304600F063F820602946304600F05EF8EF
:101D8800431C24D10C233046336000F068F8E4E7A4
:101D98000B685B1B18D40B2B0FD90B60CC18CD50DC
:101DA800304600F05CF804F10B00231D20F007001A
:101DB800C31AD3D05A42E250D0E74B688C4216BFC0
:101DC800636013600C46EBE70C464968CCE7C41C1B
:101DD80024F00304A04205D0211A304600F02EF862
:101DE8000130CFD02560DBE7280100202C0100203E
:101DF800F8B5074614460E4621B9BDE8F840114625
:101E0800FFF79CBF22B9FFF74DFF25462846F8BDCE
:101E180000F026F8A0420FD221463846FFF78EFF81
:101E280005460028F2D031462246FFF717FF314613
:101E38003846FFF737FFE9E73546E7E738B50023C7
:101E4800054C054608462360FFF7C0FB431C02D13A
:101E5800236803B12B6038BD3001002070477047FC
:101E680051F8043C181F002BBCBF0B58C018704712
:101E780003460244934200D1704703F8011BF9E777
:101E8800323938303930313131303330303900007F
:101E9800002C014000000040000400400000000049
:101EA80000127A008000000000000000010000001D
:101EB80000127A0008000000000000000201000083
:101EC80000127A0080000000000000005374616373
:101ED8006B206672616D653A0A000000205230205E
:101EE8003D2020253038580A0000000020523120BB
:101EF8003D2020253038580A0000000020523220AA
:101F08003D2020253038580A000000002052332098
:101F18003D2020253038580A000000002052313278
:101F2800203D20253038580A00000000204C52205F
:101F38003D2020253038580A00000000205043205A
:101F48003D2020253038580A000000002050535208
:101F5800203D20253038580A000000004653522FF3
:101F68004641523A0A0000002043465352203D2081
:101F780020253038580A00002048465352203D207A
:101F880020253038580A00002044465352203D206E
:101F980020253038580A00002041465352203D2061
:101FA80020253038580A0000204D4D464152203D2A
:101FB80020253038580A00002042464152203D2052
:101FC80020253038580A00004D6973630A00000064
:101FD800204C522F4558435F52455455524E3D2090
:101FE800253038580A000000313233343536373856
:101FF800000000005B55736167654661756C745D30
:102008000A0000005B4275734661756C745D0A00D6
:102018005B486172644661756C745D0A000000007B
:10202800232D302B2000686C4C00656667454647B9
:10203800003031323334353637383941424344453C
:1020480046003031323334353637383961626364AB
:03205800656600BA
:10205C007856341200000000000000000102030456
:10206C000607080900A24A0418010020000000001D
:10207C002400002000000000000000000000000010
:10208C000000000000000000000000000000000044
:10209C000000000000000000000000000000000034
:1020AC000000000000000000000000000000000024
:1020BC000000000000000000000000000000000014
:1020CC000000000000000000000000000000000004
:0820DC00000000003254769868
:0400000508000229C4
:00000001FF
